{
  "contractName": "CasperDeposit",
  "abi": [
    {
      "constant": true,
      "inputs": [
        {
          "name": "",
          "type": "address"
        }
      ],
      "name": "intialInterest",
      "outputs": [
        {
          "name": "",
          "type": "int256"
        }
      ],
      "payable": false,
      "stateMutability": "view",
      "type": "function"
    },
    {
      "constant": true,
      "inputs": [
        {
          "name": "",
          "type": "address"
        }
      ],
      "name": "deposits",
      "outputs": [
        {
          "name": "",
          "type": "uint256"
        }
      ],
      "payable": false,
      "stateMutability": "view",
      "type": "function"
    },
    {
      "inputs": [
        {
          "name": "_minDeposit",
          "type": "uint256"
        },
        {
          "name": "_interval",
          "type": "uint256"
        },
        {
          "name": "_recipient",
          "type": "address"
        },
        {
          "name": "ratio",
          "type": "uint256"
        }
      ],
      "payable": false,
      "stateMutability": "nonpayable",
      "type": "constructor"
    },
    {
      "constant": false,
      "inputs": [
        {
          "name": "withdrawal_addr",
          "type": "address"
        }
      ],
      "name": "deposit",
      "outputs": [],
      "payable": true,
      "stateMutability": "payable",
      "type": "function"
    },
    {
      "constant": false,
      "inputs": [],
      "name": "withdraw",
      "outputs": [],
      "payable": false,
      "stateMutability": "nonpayable",
      "type": "function"
    },
    {
      "constant": false,
      "inputs": [],
      "name": "addInterest",
      "outputs": [],
      "payable": true,
      "stateMutability": "payable",
      "type": "function"
    },
    {
      "constant": false,
      "inputs": [
        {
          "name": "amount",
          "type": "uint256"
        }
      ],
      "name": "penalize",
      "outputs": [],
      "payable": false,
      "stateMutability": "nonpayable",
      "type": "function"
    },
    {
      "constant": false,
      "inputs": [
        {
          "name": "_newinterval",
          "type": "uint256"
        }
      ],
      "name": "setInterval",
      "outputs": [],
      "payable": false,
      "stateMutability": "nonpayable",
      "type": "function"
    },
    {
      "constant": false,
      "inputs": [
        {
          "name": "_newminDeposit",
          "type": "uint256"
        }
      ],
      "name": "setminDeposit",
      "outputs": [],
      "payable": false,
      "stateMutability": "nonpayable",
      "type": "function"
    },
    {
      "constant": false,
      "inputs": [
        {
          "name": "user",
          "type": "address"
        }
      ],
      "name": "getDeposit",
      "outputs": [
        {
          "name": "",
          "type": "uint256"
        }
      ],
      "payable": false,
      "stateMutability": "nonpayable",
      "type": "function"
    },
    {
      "constant": false,
      "inputs": [],
      "name": "getInterestAdded",
      "outputs": [
        {
          "name": "",
          "type": "int256"
        }
      ],
      "payable": false,
      "stateMutability": "nonpayable",
      "type": "function"
    },
    {
      "constant": false,
      "inputs": [],
      "name": "getTotalDeposit",
      "outputs": [
        {
          "name": "",
          "type": "uint256"
        }
      ],
      "payable": false,
      "stateMutability": "nonpayable",
      "type": "function"
    },
    {
      "constant": false,
      "inputs": [
        {
          "name": "user",
          "type": "address"
        }
      ],
      "name": "getID",
      "outputs": [
        {
          "name": "",
          "type": "uint256"
        }
      ],
      "payable": false,
      "stateMutability": "nonpayable",
      "type": "function"
    }
  ],
  "bytecode": "0x608060405234801561001057600080fd5b50604051608080610d8d833981018060405281019080805190602001909291908051906020019092919080519060200190929190805190602001909291905050508360088190555082600b8190555033600d60006101000a81548173ffffffffffffffffffffffffffffffffffffffff021916908373ffffffffffffffffffffffffffffffffffffffff16021790555081600c60006101000a81548173ffffffffffffffffffffffffffffffffffffffff021916908373ffffffffffffffffffffffffffffffffffffffff160217905550806009819055508061271003600a8190555050505050610c87806101066000396000f3006080604052600436106100ba576000357c0100000000000000000000000000000000000000000000000000000000900463ffffffff16806305f87160146100bf5780630d09365c1461011657806322a90082146101205780633ccfd60b1461014d57806382ebd2761461016457806399f826a51461018f578063c022215c146101e6578063c7f9218a14610211578063d40845fd1461023e578063e1254fba1461026b578063f340fa01146102c2578063fc7e286d146102f8575b600080fd5b3480156100cb57600080fd5b50610100600480360381019080803573ffffffffffffffffffffffffffffffffffffffff16906020019092919050505061034f565b6040518082815260200191505060405180910390f35b61011e610367565b005b34801561012c57600080fd5b5061014b600480360381019080803590602001909291905050506103db565b005b34801561015957600080fd5b50610162610441565b005b34801561017057600080fd5b50610179610855565b6040518082815260200191505060405180910390f35b34801561019b57600080fd5b506101d0600480360381019080803573ffffffffffffffffffffffffffffffffffffffff16906020019092919050505061085f565b6040518082815260200191505060405180910390f35b3480156101f257600080fd5b506101fb6108a8565b6040518082815260200191505060405180910390f35b34801561021d57600080fd5b5061023c600480360381019080803590602001909291905050506108b2565b005b34801561024a57600080fd5b5061026960048036038101908080359060200190929190505050610985565b005b34801561027757600080fd5b506102ac600480360381019080803573ffffffffffffffffffffffffffffffffffffffff1690602001909291905050506109eb565b6040518082815260200191505060405180910390f35b6102f6600480360381019080803573ffffffffffffffffffffffffffffffffffffffff169060200190929190505050610a34565b005b34801561030457600080fd5b50610339600480360381019080803573ffffffffffffffffffffffffffffffffffffffff169060200190929190505050610c43565b6040518082815260200191505060405180910390f35b60006020528060005260406000206000915090505481565b6000600d60009054906101000a900473ffffffffffffffffffffffffffffffffffffffff1673ffffffffffffffffffffffffffffffffffffffff163373ffffffffffffffffffffffffffffffffffffffff161415156103c557600080fd5b3490508060076000828254019250508190555050565b600d60009054906101000a900473ffffffffffffffffffffffffffffffffffffffff1673ffffffffffffffffffffffffffffffffffffffff163373ffffffffffffffffffffffffffffffffffffffff1614151561043757600080fd5b80600b8190555050565b6000806000806000600b54600460003373ffffffffffffffffffffffffffffffffffffffff1673ffffffffffffffffffffffffffffffffffffffff1681526020019081526020016000205442031015151561049b57600080fd5b600854600160003373ffffffffffffffffffffffffffffffffffffffff1673ffffffffffffffffffffffffffffffffffffffff168152602001908152602001600020541115156104ea57600080fd5b600260003373ffffffffffffffffffffffffffffffffffffffff1673ffffffffffffffffffffffffffffffffffffffff16815260200190815260200160002060009054906101000a900473ffffffffffffffffffffffffffffffffffffffff169450600160003373ffffffffffffffffffffffffffffffffffffffff1673ffffffffffffffffffffffffffffffffffffffff168152602001908152602001600020549350600654600160003373ffffffffffffffffffffffffffffffffffffffff1673ffffffffffffffffffffffffffffffffffffffff168152602001908152602001600020546000803373ffffffffffffffffffffffffffffffffffffffff1673ffffffffffffffffffffffffffffffffffffffff16815260200190815260200160002054600754030281151561061e57fe5b05925060008313156107a057612710836009540281151561063b57fe5b05915061271083600a540281151561064f57fe5b059050600160003373ffffffffffffffffffffffffffffffffffffffff1673ffffffffffffffffffffffffffffffffffffffff16815260200190815260200160002054820191506000600160003373ffffffffffffffffffffffffffffffffffffffff1673ffffffffffffffffffffffffffffffffffffffff16815260200190815260200160002081905550836006600082825403925050819055508473ffffffffffffffffffffffffffffffffffffffff166108fc839081150290604051600060405180830381858888f19350505050158015610731573d6000803e3d6000fd5b50600c60009054906101000a900473ffffffffffffffffffffffffffffffffffffffff1673ffffffffffffffffffffffffffffffffffffffff166108fc829081150290604051600060405180830381858888f1935050505015801561079a573d6000803e3d6000fd5b5061084e565b836006600082825403925050819055506000600160003373ffffffffffffffffffffffffffffffffffffffff1673ffffffffffffffffffffffffffffffffffffffff16815260200190815260200160002081905550600083850113156108065782840193505b8473ffffffffffffffffffffffffffffffffffffffff166108fc859081150290604051600060405180830381858888f1935050505015801561084c573d6000803e3d6000fd5b505b5050505050565b6000600754905090565b6000600360008373ffffffffffffffffffffffffffffffffffffffff1673ffffffffffffffffffffffffffffffffffffffff168152602001908152602001600020549050919050565b6000600654905090565b600d60009054906101000a900473ffffffffffffffffffffffffffffffffffffffff1673ffffffffffffffffffffffffffffffffffffffff163373ffffffffffffffffffffffffffffffffffffffff1614151561090e57600080fd5b8060075403600781905550600c60009054906101000a900473ffffffffffffffffffffffffffffffffffffffff1673ffffffffffffffffffffffffffffffffffffffff166108fc829081150290604051600060405180830381858888f19350505050158015610981573d6000803e3d6000fd5b5050565b600d60009054906101000a900473ffffffffffffffffffffffffffffffffffffffff1673ffffffffffffffffffffffffffffffffffffffff163373ffffffffffffffffffffffffffffffffffffffff161415156109e157600080fd5b8060088190555050565b6000600160008373ffffffffffffffffffffffffffffffffffffffff1673ffffffffffffffffffffffffffffffffffffffff168152602001908152602001600020549050919050565b6008543410151515610a4557600080fd5b6007546000803373ffffffffffffffffffffffffffffffffffffffff1673ffffffffffffffffffffffffffffffffffffffff1681526020019081526020016000208190555034600160003373ffffffffffffffffffffffffffffffffffffffff1673ffffffffffffffffffffffffffffffffffffffff1681526020019081526020016000208190555080600260003373ffffffffffffffffffffffffffffffffffffffff1673ffffffffffffffffffffffffffffffffffffffff16815260200190815260200160002060006101000a81548173ffffffffffffffffffffffffffffffffffffffff021916908373ffffffffffffffffffffffffffffffffffffffff16021790555042600460003373ffffffffffffffffffffffffffffffffffffffff1673ffffffffffffffffffffffffffffffffffffffff168152602001908152602001600020819055506000600360003373ffffffffffffffffffffffffffffffffffffffff1673ffffffffffffffffffffffffffffffffffffffff168152602001908152602001600020541415610c30576001600560008282540192505081905550600554600360003373ffffffffffffffffffffffffffffffffffffffff1673ffffffffffffffffffffffffffffffffffffffff168152602001908152602001600020819055505b3460066000828254019250508190555050565b600160205280600052604060002060009150905054815600a165627a7a723058208f547f5fc86ab0753d410b75fb7c8492666816c2668c47b89f4486054f0bdf200029",
  "source": "\r\ncontract CasperDeposit{\r\n\r\nmapping(address=>int) public intialInterest;\r\nmapping(address=>uint) public deposits;\r\nmapping(address=>address) withdrawalAddress;\r\nmapping(address=>uint) validator_Index;\r\nmapping(address=>uint) depositTime;\r\nuint totalValidators;\r\nuint totalDeposits;\r\nint totalInterestAdded;\r\nuint minDeposit;\r\nuint userRatio;\r\nuint recipientRatio;\r\nuint interval;\r\naddress recipient;\r\naddress owner;\r\n\r\n  function CasperDeposit(uint _minDeposit,uint _interval,address _recipient,uint ratio){\r\n    minDeposit=_minDeposit;\r\n    interval=_interval;\r\n    owner=msg.sender;\r\n    recipient=_recipient;\r\n    userRatio=ratio;\r\n    recipientRatio=10000-ratio;\r\n  }\r\n modifier isOwner(){\r\n   require(msg.sender==owner);\r\n   _;\r\n }\r\n  function deposit( address withdrawal_addr) payable {\r\n    require(msg.value>=minDeposit);\r\n    intialInterest[msg.sender]=totalInterestAdded;\r\n    deposits[msg.sender]=msg.value;\r\n    withdrawalAddress[msg.sender]=withdrawal_addr;\r\n    depositTime[msg.sender]=now;\r\n    if(validator_Index[msg.sender]==0){\r\n    totalValidators+=1;\r\n    validator_Index[msg.sender]=totalValidators;\r\n\r\n    }\r\n    totalDeposits+=msg.value;\r\n}\r\n\r\n  function  withdraw() {\r\n    //require(msg.sender==validator_Index);\r\n    require(now-depositTime[msg.sender]>=interval);\r\n    require(deposits[msg.sender]>minDeposit);\r\n    address to=withdrawalAddress[msg.sender];\r\n    //if(to==0) revert();\r\n    uint d=deposits[msg.sender];\r\n    int interest=((totalInterestAdded-int(intialInterest[msg.sender]))*int(deposits[msg.sender]))/int(totalDeposits);\r\n    if( interest>0){\r\n\r\n    uint valInterest=uint( (int(userRatio)*(interest))/10000);\r\n    uint rInterest=uint((int(recipientRatio)*(interest))/10000);\r\n    valInterest+=deposits[msg.sender];\r\n\r\n    deposits[msg.sender]=0;\r\n    totalDeposits-=d;\r\n    to.transfer(valInterest);\r\n    recipient.transfer(rInterest);\r\n    }\r\n    else{\r\n      totalDeposits-=d;\r\n      deposits[msg.sender]=0;\r\n\r\n      if(int(d)+interest>0)\r\n      d=uint(int(d)+interest);\r\n      to.transfer(d);\r\n\r\n    }\r\n\r\n}\r\nfunction addInterest() payable isOwner() {\r\n  int val=int(msg.value);\r\n  totalInterestAdded+=val;\r\n}\r\n\r\nfunction penalize(uint amount) isOwner(){\r\n\r\n  totalInterestAdded=totalInterestAdded-int(amount);\r\n  recipient.transfer(amount);\r\n}\r\nfunction setInterval(uint _newinterval) isOwner(){\r\n  interval=_newinterval;\r\n}\r\nfunction setminDeposit(uint _newminDeposit) isOwner(){\r\n  minDeposit=_newminDeposit;\r\n}\r\nfunction getDeposit(address user) returns(uint){\r\n  return deposits[user];\r\n}\r\nfunction getInterestAdded() returns(int){\r\n  return totalInterestAdded;\r\n}\r\nfunction getTotalDeposit() returns(uint){\r\n  return totalDeposits;\r\n}\r\n//function getBalance(address user) returns(uint){\r\n  //return balances[user];\r\n//}\r\nfunction getID(address user) returns(uint){\r\n  return validator_Index[user];\r\n}\r\n}\r\n",
  "sourcePath": "/home/jjj/Documents/Casper/contracts/CasperDeposit.sol",
  "compiler": {
    "name": "solc",
    "version": "0.4.23+commit.124ca40d.Emscripten.clang"
  },
  "schemaVersion": "2.0.0",
  "updatedAt": "2018-05-13T00:24:28.123Z"
}