{
  "contractName": "CasperDeposit",
  "abi": [
    {
      "constant": true,
      "inputs": [
        {
          "name": "",
          "type": "uint256"
        }
      ],
      "name": "intialInterest",
      "outputs": [
        {
          "name": "",
          "type": "uint256"
        }
      ],
      "payable": false,
      "stateMutability": "view",
      "type": "function"
    },
    {
      "constant": true,
      "inputs": [
        {
          "name": "",
          "type": "uint256"
        }
      ],
      "name": "deposits",
      "outputs": [
        {
          "name": "",
          "type": "uint256"
        }
      ],
      "payable": false,
      "stateMutability": "view",
      "type": "function"
    },
    {
      "inputs": [
        {
          "name": "_minDeposit",
          "type": "uint256"
        },
        {
          "name": "_interval",
          "type": "uint256"
        },
        {
          "name": "_recipient",
          "type": "address"
        },
        {
          "name": "ratio",
          "type": "uint256"
        },
        {
          "name": "_Token",
          "type": "address"
        },
        {
          "name": "_totalPossibleDeposits",
          "type": "uint256"
        }
      ],
      "payable": false,
      "stateMutability": "nonpayable",
      "type": "constructor"
    },
    {
      "constant": false,
      "inputs": [
        {
          "name": "withdrawal_addr",
          "type": "address"
        }
      ],
      "name": "newTokenDeposit",
      "outputs": [],
      "payable": true,
      "stateMutability": "payable",
      "type": "function"
    },
    {
      "constant": false,
      "inputs": [
        {
          "name": "coinId",
          "type": "uint256"
        }
      ],
      "name": "depositToCoin",
      "outputs": [],
      "payable": true,
      "stateMutability": "payable",
      "type": "function"
    },
    {
      "constant": false,
      "inputs": [
        {
          "name": "coinId",
          "type": "uint256"
        }
      ],
      "name": "withdraw",
      "outputs": [],
      "payable": false,
      "stateMutability": "nonpayable",
      "type": "function"
    },
    {
      "constant": false,
      "inputs": [],
      "name": "addInterest",
      "outputs": [],
      "payable": true,
      "stateMutability": "payable",
      "type": "function"
    },
    {
      "constant": false,
      "inputs": [
        {
          "name": "coinId",
          "type": "uint256"
        },
        {
          "name": "amount",
          "type": "uint256"
        },
        {
          "name": "ToCoinId",
          "type": "uint256"
        }
      ],
      "name": "transferInterest",
      "outputs": [],
      "payable": false,
      "stateMutability": "nonpayable",
      "type": "function"
    },
    {
      "constant": false,
      "inputs": [
        {
          "name": "_newinterval",
          "type": "uint256"
        }
      ],
      "name": "setInterval",
      "outputs": [],
      "payable": false,
      "stateMutability": "nonpayable",
      "type": "function"
    },
    {
      "constant": false,
      "inputs": [
        {
          "name": "_newminDeposit",
          "type": "uint256"
        }
      ],
      "name": "setminDeposit",
      "outputs": [],
      "payable": false,
      "stateMutability": "nonpayable",
      "type": "function"
    },
    {
      "constant": false,
      "inputs": [
        {
          "name": "c",
          "type": "uint256"
        }
      ],
      "name": "getDeposit",
      "outputs": [
        {
          "name": "",
          "type": "uint256"
        }
      ],
      "payable": false,
      "stateMutability": "nonpayable",
      "type": "function"
    },
    {
      "constant": false,
      "inputs": [],
      "name": "getInterestAdded",
      "outputs": [
        {
          "name": "",
          "type": "uint256"
        }
      ],
      "payable": false,
      "stateMutability": "nonpayable",
      "type": "function"
    },
    {
      "constant": false,
      "inputs": [],
      "name": "getTotalDeposit",
      "outputs": [
        {
          "name": "",
          "type": "uint256"
        }
      ],
      "payable": false,
      "stateMutability": "nonpayable",
      "type": "function"
    },
    {
      "constant": false,
      "inputs": [],
      "name": "getRemainingDeposit",
      "outputs": [
        {
          "name": "",
          "type": "uint256"
        }
      ],
      "payable": false,
      "stateMutability": "nonpayable",
      "type": "function"
    },
    {
      "constant": false,
      "inputs": [],
      "name": "getTotalOutInterest",
      "outputs": [
        {
          "name": "",
          "type": "uint256"
        }
      ],
      "payable": false,
      "stateMutability": "nonpayable",
      "type": "function"
    },
    {
      "constant": false,
      "inputs": [],
      "name": "getTotalPossibleDeposits",
      "outputs": [
        {
          "name": "",
          "type": "uint256"
        }
      ],
      "payable": false,
      "stateMutability": "nonpayable",
      "type": "function"
    },
    {
      "constant": false,
      "inputs": [
        {
          "name": "coinID",
          "type": "uint256"
        }
      ],
      "name": "getMyInterest",
      "outputs": [
        {
          "name": "",
          "type": "uint256"
        }
      ],
      "payable": false,
      "stateMutability": "nonpayable",
      "type": "function"
    },
    {
      "constant": false,
      "inputs": [
        {
          "name": "ID",
          "type": "uint256"
        }
      ],
      "name": "Test",
      "outputs": [
        {
          "name": "",
          "type": "address"
        }
      ],
      "payable": false,
      "stateMutability": "nonpayable",
      "type": "function"
    }
  ],
  "bytecode": "0x608060405234801561001057600080fd5b5060405160c0806113db83398101806040528101908080519060200190929190805190602001909291908051906020019092919080519060200190929190805190602001909291908051906020019092919050505085600a8190555084600d8190555033601160006101000a81548173ffffffffffffffffffffffffffffffffffffffff021916908373ffffffffffffffffffffffffffffffffffffffff16021790555083601060006101000a81548173ffffffffffffffffffffffffffffffffffffffff021916908373ffffffffffffffffffffffffffffffffffffffff16021790555082600b819055508261271003600c8190555081600560006101000a81548173ffffffffffffffffffffffffffffffffffffffff021916908373ffffffffffffffffffffffffffffffffffffffff16021790555080600781905550806008819055505050505050506112708061016b6000396000f3006080604052600436106100f1576000357c0100000000000000000000000000000000000000000000000000000000900463ffffffff1680630d09365c146100f657806322a90082146101005780632e1a7d4d1461012d5780634053197e1461015a578063548766a31461019b5780635f838141146101dc57806363a242a6146102125780636beaaf191461027f57806382ebd276146102aa57806397c5cdb9146102d55780639e97e714146103165780639f9fb96814610336578063b02c43d014610377578063c022215c146103b8578063c9d27f2c146103e3578063d363e9e11461040e578063d40845fd14610439575b600080fd5b6100fe610466565b005b34801561010c57600080fd5b5061012b600480360381019080803590602001909291905050506104d4565b005b34801561013957600080fd5b506101586004803603810190808035906020019092919050505061053a565b005b34801561016657600080fd5b50610185600480360381019080803590602001909291905050506108c6565b6040518082815260200191505060405180910390f35b3480156101a757600080fd5b506101da6004803603810190808035906020019092919080359060200190929190803590602001909291905050506108de565b005b610210600480360381019080803573ffffffffffffffffffffffffffffffffffffffff169060200190929190505050610b97565b005b34801561021e57600080fd5b5061023d60048036038101908080359060200190929190505050610ddb565b604051808273ffffffffffffffffffffffffffffffffffffffff1673ffffffffffffffffffffffffffffffffffffffff16815260200191505060405180910390f35b34801561028b57600080fd5b50610294610eb5565b6040518082815260200191505060405180910390f35b3480156102b657600080fd5b506102bf610ebf565b6040518082815260200191505060405180910390f35b3480156102e157600080fd5b5061030060048036038101908080359060200190929190505050610ec9565b6040518082815260200191505060405180910390f35b61033460048036038101908080359060200190929190505050610f26565b005b34801561034257600080fd5b5061036160048036038101908080359060200190929190505050611152565b6040518082815260200191505060405180910390f35b34801561038357600080fd5b506103a26004803603810190808035906020019092919050505061116f565b6040518082815260200191505060405180910390f35b3480156103c457600080fd5b506103cd611187565b6040518082815260200191505060405180910390f35b3480156103ef57600080fd5b506103f8611195565b6040518082815260200191505060405180910390f35b34801561041a57600080fd5b5061042361119f565b6040518082815260200191505060405180910390f35b34801561044557600080fd5b50610464600480360381019080803590602001909291905050506111a9565b005b601160009054906101000a900473ffffffffffffffffffffffffffffffffffffffff1673ffffffffffffffffffffffffffffffffffffffff163373ffffffffffffffffffffffffffffffffffffffff161415156104c257600080fd5b34600960008282540192505081905550565b601160009054906101000a900473ffffffffffffffffffffffffffffffffffffffff1673ffffffffffffffffffffffffffffffffffffffff163373ffffffffffffffffffffffffffffffffffffffff1614151561053057600080fd5b80600d8190555050565b60008060008060008086600560009054906101000a900473ffffffffffffffffffffffffffffffffffffffff1673ffffffffffffffffffffffffffffffffffffffff16636352211e826040518263ffffffff167c010000000000000000000000000000000000000000000000000000000002815260040180828152602001915050602060405180830381600087803b1580156105d557600080fd5b505af11580156105e9573d6000803e3d6000fd5b505050506040513d60208110156105ff57600080fd5b810190808051906020019092919050505073ffffffffffffffffffffffffffffffffffffffff163373ffffffffffffffffffffffffffffffffffffffff1614151561064957600080fd5b600260003373ffffffffffffffffffffffffffffffffffffffff1673ffffffffffffffffffffffffffffffffffffffff16815260200190815260200160002060009054906101000a900473ffffffffffffffffffffffffffffffffffffffff1696506007546008546106c8600e5460095461120f90919063ffffffff16565b028115156106d257fe5b04955085600f60008282540192505081905550600954600e8190555060016000898152602001908152602001600020549450600754856000808b815260200190815260200160002054600954030281151561072957fe5b049350600084111561085b5761271084600b540281151561074657fe5b04925061271084600c540281151561075a57fe5b049150610770858461122890919063ffffffff16565b92506000600160008a8152602001908152602001600020819055506107a08560085461122890919063ffffffff16565b6008819055508673ffffffffffffffffffffffffffffffffffffffff166108fc849081150290604051600060405180830381858888f193505050501580156107ec573d6000803e3d6000fd5b50601060009054906101000a900473ffffffffffffffffffffffffffffffffffffffff1673ffffffffffffffffffffffffffffffffffffffff166108fc839081150290604051600060405180830381858888f19350505050158015610855573d6000803e3d6000fd5b506108bc565b6000600160008a8152602001908152602001600020819055508673ffffffffffffffffffffffffffffffffffffffff166108fc869081150290604051600060405180830381858888f193505050501580156108ba573d6000803e3d6000fd5b505b5050505050505050565b60006020528060005260406000206000915090505481565b60008084600560009054906101000a900473ffffffffffffffffffffffffffffffffffffffff1673ffffffffffffffffffffffffffffffffffffffff16636352211e826040518263ffffffff167c010000000000000000000000000000000000000000000000000000000002815260040180828152602001915050602060405180830381600087803b15801561097357600080fd5b505af1158015610987573d6000803e3d6000fd5b505050506040513d602081101561099d57600080fd5b810190808051906020019092919050505073ffffffffffffffffffffffffffffffffffffffff163373ffffffffffffffffffffffffffffffffffffffff161415156109e757600080fd5b8360011515600560009054906101000a900473ffffffffffffffffffffffffffffffffffffffff1673ffffffffffffffffffffffffffffffffffffffff1663b9b88050836040518263ffffffff167c010000000000000000000000000000000000000000000000000000000002815260040180828152602001915050602060405180830381600087803b158015610a7d57600080fd5b505af1158015610a91573d6000803e3d6000fd5b505050506040513d6020811015610aa757600080fd5b81019080805190602001909291905050501515141515610ac657600080fd5b60006001600087815260200190815260200160002054141515610ae857600080fd5b85600160008981526020019081526020016000205410151515610b0a57600080fd5b60016000888152602001908152602001600020549350600080888152602001908152602001600020549250610b48868561120f90919063ffffffff16565b6001600089815260200190815260200160002081905550856001600087815260200190815260200160002081905550826000808781526020019081526020016000208190555050505050505050565b600080600a543410151515610bab57600080fd5b3460085410151515610bbc57600080fd5b600560009054906101000a900473ffffffffffffffffffffffffffffffffffffffff1673ffffffffffffffffffffffffffffffffffffffff1663c21ab7f9336040518263ffffffff167c0100000000000000000000000000000000000000000000000000000000028152600401808273ffffffffffffffffffffffffffffffffffffffff1673ffffffffffffffffffffffffffffffffffffffff168152602001915050602060405180830381600087803b158015610c7957600080fd5b505af1158015610c8d573d6000803e3d6000fd5b505050506040513d6020811015610ca357600080fd5b81019080805190602001909291905050509150600754600854600e546009540302811515610ccd57fe5b049050610ce581600f5461122890919063ffffffff16565b600f81905550600954600e819055506009546000808481526020019081526020016000208190555034600160008481526020019081526020016000208190555082600260003373ffffffffffffffffffffffffffffffffffffffff1673ffffffffffffffffffffffffffffffffffffffff16815260200190815260200160002060006101000a81548173ffffffffffffffffffffffffffffffffffffffff021916908373ffffffffffffffffffffffffffffffffffffffff160217905550426004600084815260200190815260200160002081905550610dd03460085461120f90919063ffffffff16565b600881905550505050565b600080600560009054906101000a900473ffffffffffffffffffffffffffffffffffffffff1673ffffffffffffffffffffffffffffffffffffffff16636352211e846040518263ffffffff167c010000000000000000000000000000000000000000000000000000000002815260040180828152602001915050602060405180830381600087803b158015610e6f57600080fd5b505af1158015610e83573d6000803e3d6000fd5b505050506040513d6020811015610e9957600080fd5b8101908080519060200190929190505050905080915050919050565b6000600f54905090565b6000600954905090565b60008060006001600085815260200190815260200160002054915060075482610f0f6000808881526020019081526020016000205460095461120f90919063ffffffff16565b02811515610f1957fe5b0490508092505050919050565b600081600560009054906101000a900473ffffffffffffffffffffffffffffffffffffffff1673ffffffffffffffffffffffffffffffffffffffff16636352211e826040518263ffffffff167c010000000000000000000000000000000000000000000000000000000002815260040180828152602001915050602060405180830381600087803b158015610fba57600080fd5b505af1158015610fce573d6000803e3d6000fd5b505050506040513d6020811015610fe457600080fd5b810190808051906020019092919050505073ffffffffffffffffffffffffffffffffffffffff163373ffffffffffffffffffffffffffffffffffffffff1614151561102e57600080fd5b600a54341015151561103f57600080fd5b346008541015151561105057600080fd5b6000600160008581526020019081526020016000205414151561107257600080fd5b60075460085461108f600e5460095461120f90919063ffffffff16565b0281151561109957fe5b066007546008546110b7600e5460095461120f90919063ffffffff16565b028115156110c157fe5b040191506110da82600f5461122890919063ffffffff16565b600f81905550600954600e81905550600954600080858152602001908152602001600020819055503460016000858152602001908152602001600020819055504260046000858152602001908152602001600020819055506111473460085461120f90919063ffffffff16565b600881905550505050565b600060016000838152602001908152602001600020549050919050565b60016020528060005260406000206000915090505481565b600060085460075403905090565b6000600754905090565b6000600854905090565b601160009054906101000a900473ffffffffffffffffffffffffffffffffffffffff1673ffffffffffffffffffffffffffffffffffffffff163373ffffffffffffffffffffffffffffffffffffffff1614151561120557600080fd5b80600a8190555050565b600082821115151561121d57fe5b818303905092915050565b6000818301905082811015151561123b57fe5b809050929150505600a165627a7a72305820b9bca008693aa0f53a0ea30c5016899d42c43138d564b4257407d050081f0af40029",
  "source": "\r\npragma solidity ^0.4.23;\r\nimport './StakeToken.sol';\r\nimport './SafeMath.sol';\r\n\r\ncontract CasperDeposit {\r\nusing SafeMath for *;\r\nmapping(uint=>uint) public intialInterest;\r\nmapping(uint256=>uint) public deposits;\r\nmapping(address=>address) withdrawalAddress;\r\nmapping(uint=>uint) validator_Index;\r\nmapping(uint=>uint) depositTime;\r\nStakeToken ST;\r\nuint totalValidators;\r\nuint totalPossibleDeposits;\r\nuint RemainingDeposits;\r\nuint totalInterestAdded;\r\nuint minDeposit;\r\nuint userRatio;\r\nuint recipientRatio;\r\nuint interval;\r\nuint outCurrentInterest;\r\nuint totalOutInterest;\r\naddress recipient;\r\naddress owner;\r\n\r\n  function CasperDeposit(uint _minDeposit,uint _interval,address _recipient,uint ratio,address _Token,uint _totalPossibleDeposits){\r\n    minDeposit=_minDeposit;\r\n    interval=_interval;\r\n    owner=msg.sender;\r\n    recipient=_recipient;\r\n    userRatio=ratio;\r\n    recipientRatio=10000-ratio;\r\n    ST=StakeToken(_Token);\r\n    totalPossibleDeposits=_totalPossibleDeposits;\r\n    RemainingDeposits=_totalPossibleDeposits;\r\n  }\r\n modifier isOwner(){\r\n   require(msg.sender==owner);\r\n   _;\r\n }\r\n modifier tokenExistsandOwned(uint _token){\r\n    require(msg.sender==ST.ownerOf(_token));\r\n    _;\r\n }\r\n modifier tokenExists(uint _token){\r\n    require(ST.existStatus(_token)==true);\r\n    _;\r\n }\r\n  function newTokenDeposit( address withdrawal_addr) payable {\r\n    require(msg.value>=minDeposit);\r\n    require(RemainingDeposits>=msg.value);\r\n    uint coin=ST.createToken(msg.sender);\r\n\r\n    uint accumulatedInterest=((totalInterestAdded-outCurrentInterest)*RemainingDeposits)/(totalPossibleDeposits);\r\n    totalOutInterest=totalOutInterest.add(accumulatedInterest);\r\n    outCurrentInterest=totalInterestAdded;\r\n\r\n    intialInterest[coin]=totalInterestAdded;\r\n    deposits[coin]=msg.value;\r\n    withdrawalAddress[msg.sender]=withdrawal_addr;\r\n    depositTime[coin]=now;\r\n    RemainingDeposits=RemainingDeposits.sub(msg.value);\r\n}\r\nfunction depositToCoin( uint coinId)  tokenExistsandOwned(coinId) payable{\r\n  require(msg.value>=minDeposit);\r\n  require(RemainingDeposits>=msg.value);\r\n  require(deposits[coinId]==0);\r\n\r\n  uint accumulatedInterest=((totalInterestAdded.sub(outCurrentInterest))*RemainingDeposits)/(totalPossibleDeposits)+((totalInterestAdded.sub(outCurrentInterest))*RemainingDeposits)%(totalPossibleDeposits);\r\n  totalOutInterest=totalOutInterest.add(accumulatedInterest);\r\n  outCurrentInterest=totalInterestAdded;\r\n\r\n  intialInterest[coinId]=totalInterestAdded;\r\n  deposits[coinId]=msg.value;\r\n  //withdrawalAddress[msg.sender]=withdrawal_addr;\r\n  depositTime[coinId]=now;\r\n  RemainingDeposits=RemainingDeposits.sub(msg.value);\r\n}\r\n  function  withdraw(uint256 coinId) tokenExistsandOwned(coinId){\r\n    //require(msg.sender==validator_Index);\r\n    //require(now-depositTime[msg.sender]>=interval);\r\n    //require(deposits[msg.sender]>minDeposit);\r\n    address to=withdrawalAddress[msg.sender];\r\n    //if(to==0) revert();\r\n    uint accumulatedInterest=((totalInterestAdded.sub(outCurrentInterest))*RemainingDeposits)/(totalPossibleDeposits);\r\n    totalOutInterest+=accumulatedInterest;\r\n    outCurrentInterest=totalInterestAdded;\r\n    uint d=deposits[coinId];\r\n    uint interest=((totalInterestAdded-intialInterest[coinId])*d)/totalPossibleDeposits;\r\n    if( interest>0){\r\n\r\n    uint valInterest=uint((uint(userRatio)*(interest))/10000);\r\n    uint rInterest=uint((uint(recipientRatio)*(interest))/10000);\r\n    valInterest=valInterest.add(d);\r\n\r\n    deposits[coinId]=0;\r\n    RemainingDeposits=RemainingDeposits.add(d);\r\n    to.transfer(valInterest);\r\n    recipient.transfer(rInterest);\r\n    }\r\n else{\r\n  deposits[coinId]=0;\r\n  to.transfer(d);\r\n\r\n  }\r\n}\r\n\r\nfunction addInterest() payable isOwner() {\r\n\r\n  totalInterestAdded+=msg.value;\r\n}\r\nfunction transferInterest(uint coinId,uint amount,uint ToCoinId) tokenExistsandOwned(coinId) tokenExists(ToCoinId) {\r\n  require(deposits[ToCoinId]==0);\r\n  require(deposits[coinId]>=amount);\r\n  uint d=deposits[coinId];\r\n\r\n  uint I=intialInterest[coinId];\r\n  deposits[coinId]=d.sub(amount);\r\n//intialInterest[coinId]=totalInterestAdded;\r\n  deposits[ToCoinId]=amount;\r\n  intialInterest[ToCoinId]=I;\r\n}\r\n\r\nfunction setInterval(uint _newinterval) isOwner(){\r\n  interval=_newinterval;\r\n}\r\nfunction setminDeposit(uint _newminDeposit) isOwner(){\r\n  minDeposit=_newminDeposit;\r\n}\r\nfunction getDeposit(uint c) returns(uint){\r\n  return deposits[c];\r\n}\r\nfunction getInterestAdded() returns(uint){\r\n  return totalInterestAdded;\r\n}\r\nfunction getTotalDeposit() returns(uint){\r\n  return totalPossibleDeposits-RemainingDeposits;\r\n}\r\nfunction getRemainingDeposit() returns(uint){\r\n  return RemainingDeposits;\r\n}\r\nfunction getTotalOutInterest() returns(uint){\r\n  return  totalOutInterest;\r\n}\r\nfunction getTotalPossibleDeposits() returns(uint){\r\n  return totalPossibleDeposits;\r\n}\r\n\r\nfunction getMyInterest(uint coinID) returns(uint){\r\n    uint amount=deposits[coinID];\r\n    uint interest=((totalInterestAdded.sub(intialInterest[coinID]))*amount)/(totalPossibleDeposits) ;\r\n    return interest;\r\n}\r\nfunction Test(uint ID) returns(address){\r\n  address t= ST.ownerOf(ID);\r\n  return t;\r\n}\r\n//function getBalance(address user) returns(uint){\r\n  //return balances[user];\r\n//}\r\n\r\n}\r\n",
  "sourcePath": "/home/jjj/Documents/CasperERC721/contracts/CasperDeposit.sol",
  "compiler": {
    "name": "solc",
    "version": "0.4.23+commit.124ca40d.Emscripten.clang"
  },
  "schemaVersion": "2.0.0",
  "updatedAt": "2018-07-18T17:32:18.817Z"
}