{
  "contractName": "CasperDeposit",
  "abi": [
    {
      "inputs": [
        {
          "name": "_minDeposit",
          "type": "uint256"
        },
        {
          "name": "_interval",
          "type": "uint256"
        },
        {
          "name": "_recipient",
          "type": "address"
        },
        {
          "name": "ratio",
          "type": "uint256"
        },
        {
          "name": "_token",
          "type": "address"
        }
      ],
      "payable": false,
      "stateMutability": "nonpayable",
      "type": "constructor"
    },
    {
      "constant": false,
      "inputs": [],
      "name": "deposit",
      "outputs": [],
      "payable": true,
      "stateMutability": "payable",
      "type": "function"
    },
    {
      "constant": false,
      "inputs": [
        {
          "name": "val",
          "type": "uint256"
        },
        {
          "name": "to",
          "type": "address"
        }
      ],
      "name": "withdraw",
      "outputs": [],
      "payable": false,
      "stateMutability": "nonpayable",
      "type": "function"
    },
    {
      "constant": false,
      "inputs": [],
      "name": "addInterest",
      "outputs": [],
      "payable": true,
      "stateMutability": "payable",
      "type": "function"
    },
    {
      "constant": false,
      "inputs": [
        {
          "name": "amount",
          "type": "uint256"
        }
      ],
      "name": "penalize",
      "outputs": [],
      "payable": false,
      "stateMutability": "nonpayable",
      "type": "function"
    },
    {
      "constant": false,
      "inputs": [
        {
          "name": "_newinterval",
          "type": "uint256"
        }
      ],
      "name": "setInterval",
      "outputs": [],
      "payable": false,
      "stateMutability": "nonpayable",
      "type": "function"
    },
    {
      "constant": false,
      "inputs": [
        {
          "name": "_newminDeposit",
          "type": "uint256"
        }
      ],
      "name": "setminDeposit",
      "outputs": [],
      "payable": false,
      "stateMutability": "nonpayable",
      "type": "function"
    },
    {
      "constant": false,
      "inputs": [],
      "name": "getInterestAdded",
      "outputs": [
        {
          "name": "",
          "type": "int256"
        }
      ],
      "payable": false,
      "stateMutability": "nonpayable",
      "type": "function"
    },
    {
      "constant": false,
      "inputs": [],
      "name": "getTotalDeposit",
      "outputs": [
        {
          "name": "",
          "type": "uint256"
        }
      ],
      "payable": false,
      "stateMutability": "nonpayable",
      "type": "function"
    }
  ],
  "bytecode": "0x608060405234801561001057600080fd5b5060405160a080610b1b8339810180604052810190808051906020019092919080519060200190929190805190602001909291908051906020019092919080519060200190929190505050846002819055508360058190555033600960006101000a81548173ffffffffffffffffffffffffffffffffffffffff021916908373ffffffffffffffffffffffffffffffffffffffff16021790555082600860006101000a81548173ffffffffffffffffffffffffffffffffffffffff021916908373ffffffffffffffffffffffffffffffffffffffff16021790555081600381905550816127100360048190555080600a60006101000a81548173ffffffffffffffffffffffffffffffffffffffff021916908373ffffffffffffffffffffffffffffffffffffffff16021790555050505050506109c9806101526000396000f30060806040526004361061008d576000357c0100000000000000000000000000000000000000000000000000000000900463ffffffff168062f714ce146100925780630d09365c146100df57806322a90082146100e957806382ebd27614610116578063c022215c14610141578063c7f9218a1461016c578063d0e30db014610199578063d40845fd146101a3575b600080fd5b34801561009e57600080fd5b506100dd60048036038101908080359060200190929190803573ffffffffffffffffffffffffffffffffffffffff1690602001909291905050506101d0565b005b6100e761058a565b005b3480156100f557600080fd5b50610114600480360381019080803590602001909291905050506105fe565b005b34801561012257600080fd5b5061012b610664565b6040518082815260200191505060405180910390f35b34801561014d57600080fd5b5061015661066e565b6040518082815260200191505060405180910390f35b34801561017857600080fd5b5061019760048036038101908080359060200190929190505050610678565b005b6101a161074b565b005b3480156101af57600080fd5b506101ce60048036038101908080359060200190929190505050610937565b005b6000806000806000600a60009054906101000a900473ffffffffffffffffffffffffffffffffffffffff1673ffffffffffffffffffffffffffffffffffffffff1662fdd58e33896040518363ffffffff167c0100000000000000000000000000000000000000000000000000000000028152600401808373ffffffffffffffffffffffffffffffffffffffff1673ffffffffffffffffffffffffffffffffffffffff16815260200182815260200192505050602060405180830381600087803b15801561029c57600080fd5b505af11580156102b0573d6000803e3d6000fd5b505050506040513d60208110156102c657600080fd5b810190808051906020019092919050505094503393506000851115156102eb57600080fd5b600a60009054906101000a900473ffffffffffffffffffffffffffffffffffffffff1673ffffffffffffffffffffffffffffffffffffffff166318160ddd6040518163ffffffff167c0100000000000000000000000000000000000000000000000000000000028152600401602060405180830381600087803b15801561037157600080fd5b505af1158015610385573d6000803e3d6000fd5b505050506040513d602081101561039b57600080fd5b8101908080519060200190929190505050858860015403028115156103bc57fe5b04925061271083600354028115156103d057fe5b04915061271083600454028115156103e457fe5b0490508482019150600a60009054906101000a900473ffffffffffffffffffffffffffffffffffffffff1673ffffffffffffffffffffffffffffffffffffffff1663ec9f205e8689876040518463ffffffff167c0100000000000000000000000000000000000000000000000000000000028152600401808481526020018381526020018273ffffffffffffffffffffffffffffffffffffffff1673ffffffffffffffffffffffffffffffffffffffff1681526020019350505050600060405180830381600087803b1580156104b957600080fd5b505af11580156104cd573d6000803e3d6000fd5b505050508573ffffffffffffffffffffffffffffffffffffffff166108fc839081150290604051600060405180830381858888f19350505050158015610517573d6000803e3d6000fd5b50600860009054906101000a900473ffffffffffffffffffffffffffffffffffffffff1673ffffffffffffffffffffffffffffffffffffffff166108fc829081150290604051600060405180830381858888f19350505050158015610580573d6000803e3d6000fd5b5050505050505050565b6000600960009054906101000a900473ffffffffffffffffffffffffffffffffffffffff1673ffffffffffffffffffffffffffffffffffffffff163373ffffffffffffffffffffffffffffffffffffffff161415156105e857600080fd5b3490508060016000828254019250508190555050565b600960009054906101000a900473ffffffffffffffffffffffffffffffffffffffff1673ffffffffffffffffffffffffffffffffffffffff163373ffffffffffffffffffffffffffffffffffffffff1614151561065a57600080fd5b8060058190555050565b6000600154905090565b6000600654905090565b600960009054906101000a900473ffffffffffffffffffffffffffffffffffffffff1673ffffffffffffffffffffffffffffffffffffffff163373ffffffffffffffffffffffffffffffffffffffff161415156106d457600080fd5b8060015403600181905550600860009054906101000a900473ffffffffffffffffffffffffffffffffffffffff1673ffffffffffffffffffffffffffffffffffffffff166108fc829081150290604051600060405180830381858888f19350505050158015610747573d6000803e3d6000fd5b5050565b6000600254341015151561075e57600080fd5b600a60009054906101000a900473ffffffffffffffffffffffffffffffffffffffff1673ffffffffffffffffffffffffffffffffffffffff1663c9ffec046040518163ffffffff167c0100000000000000000000000000000000000000000000000000000000028152600401602060405180830381600087803b1580156107e457600080fd5b505af11580156107f8573d6000803e3d6000fd5b505050506040513d602081101561080e57600080fd5b8101908080519060200190929190505050341115151561082d57600080fd5b6007543481151561083a57fe5b04905034600660008282540192505081905550600a60009054906101000a900473ffffffffffffffffffffffffffffffffffffffff1673ffffffffffffffffffffffffffffffffffffffff1663f0726f4682600154336040518463ffffffff167c0100000000000000000000000000000000000000000000000000000000028152600401808481526020018381526020018273ffffffffffffffffffffffffffffffffffffffff1673ffffffffffffffffffffffffffffffffffffffff1681526020019350505050600060405180830381600087803b15801561091c57600080fd5b505af1158015610930573d6000803e3d6000fd5b5050505050565b600960009054906101000a900473ffffffffffffffffffffffffffffffffffffffff1673ffffffffffffffffffffffffffffffffffffffff163373ffffffffffffffffffffffffffffffffffffffff1614151561099357600080fd5b80600281905550505600a165627a7a7230582009522dc6e7d208805ba2a0ec70834ff19e7d51923bd144192be9e1b9e4e3172d0029",
  "source": "\r\nimport './StakeToken.sol';\r\npragma solidity ^0.4.10;\r\ncontract CasperDeposit{\r\n\r\n\r\nmapping(address=>uint) depositTime;\r\n\r\nint totalInterestAdded;\r\nuint minDeposit;\r\nuint userRatio;\r\nuint recipientRatio;\r\nuint interval;\r\nuint totalDeposits;\r\nuint price;\r\naddress recipient;\r\naddress owner;\r\nStakeToken token;\r\n\r\n  function CasperDeposit(uint _minDeposit,uint _interval,address _recipient,uint ratio,address _token){\r\n    minDeposit=_minDeposit;\r\n    interval=_interval;\r\n    owner=msg.sender;\r\n    recipient=_recipient;\r\n    userRatio=ratio;\r\n    recipientRatio=10000-ratio;\r\n    token=StakeToken(_token);\r\n  }\r\n modifier isOwner(){\r\n   require(msg.sender==owner);\r\n   _;\r\n }\r\n\r\n  function deposit() payable {\r\n      require(msg.value>=minDeposit);\r\n      require(msg.value<=token.getOutOfCirculation());\r\n      uint amount=msg.value/price;\r\n      totalDeposits+=msg.value;\r\n      token.TakeIntoCirculation(amount,uint(totalInterestAdded),msg.sender);\r\n\r\n    }\r\n\r\n\r\n\r\n\r\n\r\n\r\nfunction withdraw(uint val,address to){\r\n\r\n  uint amount=token.balanceOf(msg.sender,val);\r\n  address from=msg.sender;\r\n  require(amount>0);\r\n  uint interest=((uint(totalInterestAdded)-val)*amount)/token.totalSupply();\r\n  uint valInterest=uint( ((userRatio)*(interest))/10000);\r\n  uint rInterest=uint(((recipientRatio)*(interest))/10000);\r\n  valInterest=valInterest+amount;\r\n  token.TakeOutOfCirculation(amount,val,from);\r\n  to.transfer(valInterest);\r\n  recipient.transfer(rInterest);\r\n}\r\n\r\nfunction addInterest() payable isOwner() {\r\n  int val=int(msg.value);\r\n  totalInterestAdded+=val;\r\n}\r\n\r\nfunction penalize(uint amount) isOwner(){\r\n\r\n  totalInterestAdded=totalInterestAdded-int(amount);\r\n  recipient.transfer(amount);\r\n}\r\n\r\nfunction setInterval(uint _newinterval) isOwner(){\r\n  interval=_newinterval;\r\n}\r\n\r\nfunction setminDeposit(uint _newminDeposit) isOwner(){\r\n  minDeposit=_newminDeposit;\r\n}\r\n\r\n\r\n\r\nfunction getInterestAdded() returns(int){\r\n  return totalInterestAdded;\r\n}\r\n\r\nfunction getTotalDeposit() returns(uint){\r\n  return totalDeposits;\r\n}\r\n//function getBalance(address user) returns(uint){\r\n  //return balances[user];\r\n//}\r\n\r\n}\r\n",
  "sourcePath": "/home/jjj/Documents/CasperToken/contracts/CasperDeposit.sol",
  "compiler": {
    "name": "solc",
    "version": "0.4.23+commit.124ca40d.Emscripten.clang"
  },
  "schemaVersion": "2.0.0",
  "updatedAt": "2018-05-16T21:24:13.014Z"
}