{
  "contractName": "CasperDeposit",
  "abi": [
    {
      "constant": true,
      "inputs": [
        {
          "name": "",
          "type": "address"
        }
      ],
      "name": "balances",
      "outputs": [
        {
          "name": "",
          "type": "uint256"
        }
      ],
      "payable": false,
      "stateMutability": "view",
      "type": "function"
    },
    {
      "constant": true,
      "inputs": [
        {
          "name": "",
          "type": "address"
        }
      ],
      "name": "deposits",
      "outputs": [
        {
          "name": "",
          "type": "uint256"
        }
      ],
      "payable": false,
      "stateMutability": "view",
      "type": "function"
    },
    {
      "inputs": [
        {
          "name": "_minDeposit",
          "type": "uint256"
        },
        {
          "name": "_interval",
          "type": "uint256"
        },
        {
          "name": "_recipient",
          "type": "address"
        }
      ],
      "payable": false,
      "stateMutability": "nonpayable",
      "type": "constructor"
    },
    {
      "constant": false,
      "inputs": [
        {
          "name": "validation_addr",
          "type": "address"
        },
        {
          "name": "withdrawal_addr",
          "type": "address"
        }
      ],
      "name": "deposit",
      "outputs": [],
      "payable": true,
      "stateMutability": "payable",
      "type": "function"
    },
    {
      "constant": false,
      "inputs": [
        {
          "name": "validator_index",
          "type": "uint256"
        }
      ],
      "name": "withdraw",
      "outputs": [],
      "payable": false,
      "stateMutability": "nonpayable",
      "type": "function"
    },
    {
      "constant": false,
      "inputs": [
        {
          "name": "user",
          "type": "address"
        },
        {
          "name": "amount",
          "type": "uint256"
        }
      ],
      "name": "addInterest",
      "outputs": [],
      "payable": true,
      "stateMutability": "payable",
      "type": "function"
    },
    {
      "constant": false,
      "inputs": [
        {
          "name": "user",
          "type": "address"
        },
        {
          "name": "amount",
          "type": "uint256"
        }
      ],
      "name": "penalize",
      "outputs": [],
      "payable": false,
      "stateMutability": "nonpayable",
      "type": "function"
    },
    {
      "constant": false,
      "inputs": [
        {
          "name": "_newinterval",
          "type": "uint256"
        }
      ],
      "name": "setInterval",
      "outputs": [],
      "payable": false,
      "stateMutability": "nonpayable",
      "type": "function"
    },
    {
      "constant": false,
      "inputs": [
        {
          "name": "_newminDeposit",
          "type": "uint256"
        }
      ],
      "name": "setminDeposit",
      "outputs": [],
      "payable": false,
      "stateMutability": "nonpayable",
      "type": "function"
    },
    {
      "constant": false,
      "inputs": [
        {
          "name": "user",
          "type": "address"
        }
      ],
      "name": "getDeposit",
      "outputs": [
        {
          "name": "",
          "type": "uint256"
        }
      ],
      "payable": false,
      "stateMutability": "nonpayable",
      "type": "function"
    },
    {
      "constant": false,
      "inputs": [
        {
          "name": "user",
          "type": "address"
        }
      ],
      "name": "getBalance",
      "outputs": [
        {
          "name": "",
          "type": "uint256"
        }
      ],
      "payable": false,
      "stateMutability": "nonpayable",
      "type": "function"
    },
    {
      "constant": false,
      "inputs": [
        {
          "name": "user",
          "type": "address"
        }
      ],
      "name": "getID",
      "outputs": [
        {
          "name": "",
          "type": "uint256"
        }
      ],
      "payable": false,
      "stateMutability": "nonpayable",
      "type": "function"
    }
  ],
  "bytecode": "0x608060405234801561001057600080fd5b50604051606080610eb1833981018060405281019080805190602001909291908051906020019092919080519060200190929190505050826006819055508160078190555033600960006101000a81548173ffffffffffffffffffffffffffffffffffffffff021916908373ffffffffffffffffffffffffffffffffffffffff16021790555080600860006101000a81548173ffffffffffffffffffffffffffffffffffffffff021916908373ffffffffffffffffffffffffffffffffffffffff160217905550505050610dc8806100e96000396000f3006080604052600436106100af576000357c0100000000000000000000000000000000000000000000000000000000900463ffffffff168063213b2ff3146100b457806322a90082146100f457806327e235e3146101215780632e1a7d4d1461017857806399f826a5146101a55780639a7cba70146101fc578063d40845fd14610249578063e1254fba14610276578063f8b2cb4f146102cd578063f9609f0814610324578063fc7e286d1461037a575b600080fd5b6100f2600480360381019080803573ffffffffffffffffffffffffffffffffffffffff169060200190929190803590602001909291905050506103d1565b005b34801561010057600080fd5b5061011f6004803603810190808035906020019092919050505061048b565b005b34801561012d57600080fd5b50610162600480360381019080803573ffffffffffffffffffffffffffffffffffffffff1690602001909291905050506104f1565b6040518082815260200191505060405180910390f35b34801561018457600080fd5b506101a360048036038101908080359060200190929190505050610509565b005b3480156101b157600080fd5b506101e6600480360381019080803573ffffffffffffffffffffffffffffffffffffffff169060200190929190505050610997565b6040518082815260200191505060405180910390f35b34801561020857600080fd5b50610247600480360381019080803573ffffffffffffffffffffffffffffffffffffffff169060200190929190803590602001909291905050506109e0565b005b34801561025557600080fd5b5061027460048036038101908080359060200190929190505050610ad8565b005b34801561028257600080fd5b506102b7600480360381019080803573ffffffffffffffffffffffffffffffffffffffff169060200190929190505050610b3e565b6040518082815260200191505060405180910390f35b3480156102d957600080fd5b5061030e600480360381019080803573ffffffffffffffffffffffffffffffffffffffff169060200190929190505050610b87565b6040518082815260200191505060405180910390f35b610378600480360381019080803573ffffffffffffffffffffffffffffffffffffffff169060200190929190803573ffffffffffffffffffffffffffffffffffffffff169060200190929190505050610bcf565b005b34801561038657600080fd5b506103bb600480360381019080803573ffffffffffffffffffffffffffffffffffffffff169060200190929190505050610d84565b6040518082815260200191505060405180910390f35b600960009054906101000a900473ffffffffffffffffffffffffffffffffffffffff1673ffffffffffffffffffffffffffffffffffffffff163373ffffffffffffffffffffffffffffffffffffffff1614151561042d57600080fd5b803414151561043b57600080fd5b806000808473ffffffffffffffffffffffffffffffffffffffff1673ffffffffffffffffffffffffffffffffffffffff168152602001908152602001600020600082825401925050819055505050565b600960009054906101000a900473ffffffffffffffffffffffffffffffffffffffff1673ffffffffffffffffffffffffffffffffffffffff163373ffffffffffffffffffffffffffffffffffffffff161415156104e757600080fd5b8060078190555050565b60006020528060005260406000206000915090505481565b6000806000806000600754600460003373ffffffffffffffffffffffffffffffffffffffff1673ffffffffffffffffffffffffffffffffffffffff1681526020019081526020016000205442031015151561056357600080fd5b600260003373ffffffffffffffffffffffffffffffffffffffff1673ffffffffffffffffffffffffffffffffffffffff16815260200190815260200160002060009054906101000a900473ffffffffffffffffffffffffffffffffffffffff169450600160003373ffffffffffffffffffffffffffffffffffffffff1673ffffffffffffffffffffffffffffffffffffffff168152602001908152602001600020546000803373ffffffffffffffffffffffffffffffffffffffff1673ffffffffffffffffffffffffffffffffffffffff1681526020019081526020016000205410151561087357600160003373ffffffffffffffffffffffffffffffffffffffff1673ffffffffffffffffffffffffffffffffffffffff168152602001908152602001600020546000803373ffffffffffffffffffffffffffffffffffffffff1673ffffffffffffffffffffffffffffffffffffffff16815260200190815260200160002054039350606484605f028115156106dc57fe5b0492506064846005028115156106ee57fe5b049150600160003373ffffffffffffffffffffffffffffffffffffffff1673ffffffffffffffffffffffffffffffffffffffff168152602001908152602001600020548301925060008060003373ffffffffffffffffffffffffffffffffffffffff1673ffffffffffffffffffffffffffffffffffffffff168152602001908152602001600020819055506000600160003373ffffffffffffffffffffffffffffffffffffffff1673ffffffffffffffffffffffffffffffffffffffff168152602001908152602001600020819055508473ffffffffffffffffffffffffffffffffffffffff166108fc849081150290604051600060405180830381858888f19350505050158015610804573d6000803e3d6000fd5b50600860009054906101000a900473ffffffffffffffffffffffffffffffffffffffff1673ffffffffffffffffffffffffffffffffffffffff166108fc839081150290604051600060405180830381858888f1935050505015801561086d573d6000803e3d6000fd5b5061098f565b6000600160003373ffffffffffffffffffffffffffffffffffffffff1673ffffffffffffffffffffffffffffffffffffffff168152602001908152602001600020819055506000803373ffffffffffffffffffffffffffffffffffffffff1673ffffffffffffffffffffffffffffffffffffffff16815260200190815260200160002054905060008060003373ffffffffffffffffffffffffffffffffffffffff1673ffffffffffffffffffffffffffffffffffffffff16815260200190815260200160002081905550600081111561098e578473ffffffffffffffffffffffffffffffffffffffff166108fc829081150290604051600060405180830381858888f1935050505015801561098c573d6000803e3d6000fd5b505b5b505050505050565b6000600360008373ffffffffffffffffffffffffffffffffffffffff1673ffffffffffffffffffffffffffffffffffffffff168152602001908152602001600020549050919050565b600960009054906101000a900473ffffffffffffffffffffffffffffffffffffffff1673ffffffffffffffffffffffffffffffffffffffff163373ffffffffffffffffffffffffffffffffffffffff16141515610a3c57600080fd5b6000808373ffffffffffffffffffffffffffffffffffffffff1673ffffffffffffffffffffffffffffffffffffffff1681526020019081526020016000205481101515610a8857600080fd5b806000808473ffffffffffffffffffffffffffffffffffffffff1673ffffffffffffffffffffffffffffffffffffffff168152602001908152602001600020600082825403925050819055505050565b600960009054906101000a900473ffffffffffffffffffffffffffffffffffffffff1673ffffffffffffffffffffffffffffffffffffffff163373ffffffffffffffffffffffffffffffffffffffff16141515610b3457600080fd5b8060068190555050565b6000600160008373ffffffffffffffffffffffffffffffffffffffff1673ffffffffffffffffffffffffffffffffffffffff168152602001908152602001600020549050919050565b60008060008373ffffffffffffffffffffffffffffffffffffffff1673ffffffffffffffffffffffffffffffffffffffff168152602001908152602001600020549050919050565b6006543410151515610be057600080fd5b346000808473ffffffffffffffffffffffffffffffffffffffff1673ffffffffffffffffffffffffffffffffffffffff1681526020019081526020016000208190555034600160008473ffffffffffffffffffffffffffffffffffffffff1673ffffffffffffffffffffffffffffffffffffffff1681526020019081526020016000208190555080600260008473ffffffffffffffffffffffffffffffffffffffff1673ffffffffffffffffffffffffffffffffffffffff16815260200190815260200160002060006101000a81548173ffffffffffffffffffffffffffffffffffffffff021916908373ffffffffffffffffffffffffffffffffffffffff16021790555042600460008473ffffffffffffffffffffffffffffffffffffffff1673ffffffffffffffffffffffffffffffffffffffff16815260200190815260200160002081905550600554600360008473ffffffffffffffffffffffffffffffffffffffff1673ffffffffffffffffffffffffffffffffffffffff1681526020019081526020016000208190555060016005600082825401925050819055505050565b600160205280600052604060002060009150905054815600a165627a7a723058202af2721a89d59e44d5ceeab5a9de3f76fb9b1600ef90f39aa50b78fcb1c647230029",
  "source": "\r\ncontract CasperDeposit{\r\n\r\n mapping(address=>uint) public balances;\r\n mapping(address=>uint) public deposits;\r\nmapping(address=>address) withdrawalAddress;\r\nmapping(address=>uint) validator_Index;\r\nmapping(address=>uint) depositTime;\r\nuint totalValidators;\r\nuint minDeposit;\r\n\r\nuint interval;\r\naddress recipient;\r\naddress owner;\r\n\r\n  function CasperDeposit(uint _minDeposit,uint _interval,address _recipient){\r\n    minDeposit=_minDeposit;\r\n    interval=_interval;\r\n    owner=msg.sender;\r\n    recipient=_recipient;\r\n  }\r\n modifier isOwner(){\r\n   require(msg.sender==owner);\r\n   _;\r\n }\r\n  function deposit(address validation_addr, address withdrawal_addr) payable {\r\n    require(msg.value>=minDeposit);\r\n    balances[validation_addr]=msg.value;\r\n    deposits[validation_addr]=msg.value;\r\n    withdrawalAddress[validation_addr]=withdrawal_addr;\r\n    depositTime[validation_addr]=now;\r\n    validator_Index[validation_addr]=totalValidators;\r\n    totalValidators+=1;\r\n}\r\n\r\n  function  withdraw( uint validator_index) {\r\n    //require(msg.sender==validator_Index);\r\n    require(now-depositTime[msg.sender]>=interval);\r\n    address to=withdrawalAddress[msg.sender];\r\n\r\n    if(balances[msg.sender]>=deposits[msg.sender]){\r\n    uint interest=balances[msg.sender]-deposits[msg.sender];\r\n    uint valInterest=(95*interest)/100;\r\n    uint rInterest=(5*interest)/100;\r\n    valInterest+=deposits[msg.sender];\r\n    balances[msg.sender]=0;\r\n    deposits[msg.sender]=0;\r\n    to.transfer(valInterest);\r\n    recipient.transfer(rInterest);\r\n    }\r\n    else{\r\n      deposits[msg.sender]=0;\r\n      uint b=balances[msg.sender];\r\n      balances[msg.sender]=0;\r\n      if(b>0)\r\n      to.transfer(b);\r\n\r\n    }\r\n\r\n}\r\nfunction addInterest(address user,uint amount) payable isOwner() {\r\n  require(msg.value==amount);\r\n  balances[user]+=amount;\r\n}\r\n\r\nfunction penalize(address user,uint amount ) isOwner(){\r\n  require(amount<balances[user]);\r\n  balances[user]-=amount;\r\n}\r\nfunction setInterval(uint _newinterval) isOwner(){\r\n  interval=_newinterval;\r\n}\r\nfunction setminDeposit(uint _newminDeposit) isOwner(){\r\n  minDeposit=_newminDeposit;\r\n}\r\nfunction getDeposit(address user) returns(uint){\r\n  return deposits[user];\r\n}\r\nfunction getBalance(address user) returns(uint){\r\n  return balances[user];\r\n}\r\nfunction getID(address user) returns(uint){\r\n  return validator_Index[user];\r\n}\r\n}\r\n",
  "sourcePath": "/home/jjj/Documents/Casper/contracts/CasperDeposit.sol",
  "compiler": {
    "name": "solc",
    "version": "0.4.23+commit.124ca40d.Emscripten.clang"
  },
  "schemaVersion": "2.0.0",
  "updatedAt": "2018-05-10T14:36:29.807Z"
}