{
  "contractName": "CasperDeposit",
  "abi": [
    {
      "constant": true,
      "inputs": [
        {
          "name": "",
          "type": "uint256"
        }
      ],
      "name": "intialInterest",
      "outputs": [
        {
          "name": "",
          "type": "int256"
        }
      ],
      "payable": false,
      "stateMutability": "view",
      "type": "function"
    },
    {
      "constant": true,
      "inputs": [
        {
          "name": "",
          "type": "uint256"
        }
      ],
      "name": "deposits",
      "outputs": [
        {
          "name": "",
          "type": "uint256"
        }
      ],
      "payable": false,
      "stateMutability": "view",
      "type": "function"
    },
    {
      "inputs": [
        {
          "name": "_minDeposit",
          "type": "uint256"
        },
        {
          "name": "_interval",
          "type": "uint256"
        },
        {
          "name": "_recipient",
          "type": "address"
        },
        {
          "name": "ratio",
          "type": "uint256"
        },
        {
          "name": "_Token",
          "type": "address"
        }
      ],
      "payable": false,
      "stateMutability": "nonpayable",
      "type": "constructor"
    },
    {
      "constant": false,
      "inputs": [
        {
          "name": "withdrawal_addr",
          "type": "address"
        }
      ],
      "name": "newTokenDeposit",
      "outputs": [],
      "payable": true,
      "stateMutability": "payable",
      "type": "function"
    },
    {
      "constant": false,
      "inputs": [
        {
          "name": "coinId",
          "type": "uint256"
        }
      ],
      "name": "depositToCoin",
      "outputs": [],
      "payable": true,
      "stateMutability": "payable",
      "type": "function"
    },
    {
      "constant": false,
      "inputs": [
        {
          "name": "coinId",
          "type": "uint256"
        }
      ],
      "name": "withdraw",
      "outputs": [],
      "payable": false,
      "stateMutability": "nonpayable",
      "type": "function"
    },
    {
      "constant": false,
      "inputs": [],
      "name": "addInterest",
      "outputs": [],
      "payable": true,
      "stateMutability": "payable",
      "type": "function"
    },
    {
      "constant": false,
      "inputs": [
        {
          "name": "coinId",
          "type": "uint256"
        },
        {
          "name": "deposit",
          "type": "uint256"
        },
        {
          "name": "ToCoinId",
          "type": "uint256"
        }
      ],
      "name": "transferInterest",
      "outputs": [],
      "payable": false,
      "stateMutability": "nonpayable",
      "type": "function"
    },
    {
      "constant": false,
      "inputs": [
        {
          "name": "_newinterval",
          "type": "uint256"
        }
      ],
      "name": "setInterval",
      "outputs": [],
      "payable": false,
      "stateMutability": "nonpayable",
      "type": "function"
    },
    {
      "constant": false,
      "inputs": [
        {
          "name": "_newminDeposit",
          "type": "uint256"
        }
      ],
      "name": "setminDeposit",
      "outputs": [],
      "payable": false,
      "stateMutability": "nonpayable",
      "type": "function"
    },
    {
      "constant": false,
      "inputs": [
        {
          "name": "c",
          "type": "uint256"
        }
      ],
      "name": "getDeposit",
      "outputs": [
        {
          "name": "",
          "type": "uint256"
        }
      ],
      "payable": false,
      "stateMutability": "nonpayable",
      "type": "function"
    },
    {
      "constant": false,
      "inputs": [],
      "name": "getInterestAdded",
      "outputs": [
        {
          "name": "",
          "type": "int256"
        }
      ],
      "payable": false,
      "stateMutability": "nonpayable",
      "type": "function"
    },
    {
      "constant": false,
      "inputs": [],
      "name": "getTotalDeposit",
      "outputs": [
        {
          "name": "",
          "type": "uint256"
        }
      ],
      "payable": false,
      "stateMutability": "nonpayable",
      "type": "function"
    }
  ],
  "bytecode": "0x608060405234801561001057600080fd5b5060405160a080610e5983398101806040528101908080519060200190929190805190602001909291908051906020019092919080519060200190929190805190602001909291905050508460098190555083600c8190555033600e60006101000a81548173ffffffffffffffffffffffffffffffffffffffff021916908373ffffffffffffffffffffffffffffffffffffffff16021790555082600d60006101000a81548173ffffffffffffffffffffffffffffffffffffffff021916908373ffffffffffffffffffffffffffffffffffffffff16021790555081600a819055508161271003600b8190555080600560006101000a81548173ffffffffffffffffffffffffffffffffffffffff021916908373ffffffffffffffffffffffffffffffffffffffff1602179055505050505050610d07806101526000396000f3006080604052600436106100ba576000357c0100000000000000000000000000000000000000000000000000000000900463ffffffff1680630d09365c146100bf57806322a90082146100c95780632e1a7d4d146100f65780634053197e14610123578063548766a3146101645780635f838141146101a557806382ebd276146101db5780639e97e714146102065780639f9fb96814610226578063b02c43d014610267578063c022215c146102a8578063d40845fd146102d3575b600080fd5b6100c7610300565b005b3480156100d557600080fd5b506100f460048036038101908080359060200190929190505050610374565b005b34801561010257600080fd5b50610121600480360381019080803590602001909291905050506103da565b005b34801561012f57600080fd5b5061014e600480360381019080803590602001909291905050506106a1565b6040518082815260200191505060405180910390f35b34801561017057600080fd5b506101a36004803603810190808035906020019092919080359060200190929190803590602001909291905050506106b9565b005b6101d9600480360381019080803573ffffffffffffffffffffffffffffffffffffffff1690602001909291905050506108be565b005b3480156101e757600080fd5b506101f0610aa6565b6040518082815260200191505060405180910390f35b61022460048036038101908080359060200190929190505050610ab0565b005b34801561023257600080fd5b5061025160048036038101908080359060200190929190505050610c36565b6040518082815260200191505060405180910390f35b34801561027357600080fd5b5061029260048036038101908080359060200190929190505050610c53565b6040518082815260200191505060405180910390f35b3480156102b457600080fd5b506102bd610c6b565b6040518082815260200191505060405180910390f35b3480156102df57600080fd5b506102fe60048036038101908080359060200190929190505050610c75565b005b6000600e60009054906101000a900473ffffffffffffffffffffffffffffffffffffffff1673ffffffffffffffffffffffffffffffffffffffff163373ffffffffffffffffffffffffffffffffffffffff1614151561035e57600080fd5b3490508060086000828254019250508190555050565b600e60009054906101000a900473ffffffffffffffffffffffffffffffffffffffff1673ffffffffffffffffffffffffffffffffffffffff163373ffffffffffffffffffffffffffffffffffffffff161415156103d057600080fd5b80600c8190555050565b600080600080600085600560009054906101000a900473ffffffffffffffffffffffffffffffffffffffff1673ffffffffffffffffffffffffffffffffffffffff16636352211e826040518263ffffffff167c010000000000000000000000000000000000000000000000000000000002815260040180828152602001915050602060405180830381600087803b15801561047457600080fd5b505af1158015610488573d6000803e3d6000fd5b505050506040513d602081101561049e57600080fd5b810190808051906020019092919050505073ffffffffffffffffffffffffffffffffffffffff163373ffffffffffffffffffffffffffffffffffffffff161415156104e857600080fd5b600260003373ffffffffffffffffffffffffffffffffffffffff1673ffffffffffffffffffffffffffffffffffffffff16815260200190815260200160002060009054906101000a900473ffffffffffffffffffffffffffffffffffffffff16955060016000888152602001908152602001600020549450600754856000808a815260200190815260200160002054600854030281151561058557fe5b05935060008413156106985761271084600a54028115156105a257fe5b05925061271084600b54028115156105b657fe5b059150848301925060006001600089815260200190815260200160002081905550846007600082825403925050819055508573ffffffffffffffffffffffffffffffffffffffff166108fc849081150290604051600060405180830381858888f1935050505015801561062d573d6000803e3d6000fd5b50600d60009054906101000a900473ffffffffffffffffffffffffffffffffffffffff1673ffffffffffffffffffffffffffffffffffffffff166108fc839081150290604051600060405180830381858888f19350505050158015610696573d6000803e3d6000fd5b505b50505050505050565b60006020528060005260406000206000915090505481565b600083600560009054906101000a900473ffffffffffffffffffffffffffffffffffffffff1673ffffffffffffffffffffffffffffffffffffffff16636352211e826040518263ffffffff167c010000000000000000000000000000000000000000000000000000000002815260040180828152602001915050602060405180830381600087803b15801561074d57600080fd5b505af1158015610761573d6000803e3d6000fd5b505050506040513d602081101561077757600080fd5b810190808051906020019092919050505073ffffffffffffffffffffffffffffffffffffffff163373ffffffffffffffffffffffffffffffffffffffff161415156107c157600080fd5b8260011515600560009054906101000a900473ffffffffffffffffffffffffffffffffffffffff1673ffffffffffffffffffffffffffffffffffffffff1663b9b88050836040518263ffffffff167c010000000000000000000000000000000000000000000000000000000002815260040180828152602001915050602060405180830381600087803b15801561085757600080fd5b505af115801561086b573d6000803e3d6000fd5b505050506040513d602081101561088157600080fd5b810190808051906020019092919050505015151415156108a057600080fd5b60016000878152602001908152602001600020549250505050505050565b600060095434101515156108d157600080fd5b600560009054906101000a900473ffffffffffffffffffffffffffffffffffffffff1673ffffffffffffffffffffffffffffffffffffffff1663c21ab7f9336040518263ffffffff167c0100000000000000000000000000000000000000000000000000000000028152600401808273ffffffffffffffffffffffffffffffffffffffff1673ffffffffffffffffffffffffffffffffffffffff168152602001915050602060405180830381600087803b15801561098e57600080fd5b505af11580156109a2573d6000803e3d6000fd5b505050506040513d60208110156109b857600080fd5b810190808051906020019092919050505090506008546000808381526020019081526020016000208190555034600160008381526020019081526020016000208190555081600260003373ffffffffffffffffffffffffffffffffffffffff1673ffffffffffffffffffffffffffffffffffffffff16815260200190815260200160002060006101000a81548173ffffffffffffffffffffffffffffffffffffffff021916908373ffffffffffffffffffffffffffffffffffffffff160217905550426004600083815260200190815260200160002081905550346007600082825401925050819055505050565b6000600854905090565b80600560009054906101000a900473ffffffffffffffffffffffffffffffffffffffff1673ffffffffffffffffffffffffffffffffffffffff16636352211e826040518263ffffffff167c010000000000000000000000000000000000000000000000000000000002815260040180828152602001915050602060405180830381600087803b158015610b4257600080fd5b505af1158015610b56573d6000803e3d6000fd5b505050506040513d6020811015610b6c57600080fd5b810190808051906020019092919050505073ffffffffffffffffffffffffffffffffffffffff163373ffffffffffffffffffffffffffffffffffffffff16141515610bb657600080fd5b6009543410151515610bc757600080fd5b60006001600084815260200190815260200160002054141515610be957600080fd5b600854600080848152602001908152602001600020819055503460016000848152602001908152602001600020819055504260046000848152602001908152602001600020819055505050565b600060016000838152602001908152602001600020549050919050565b60016020528060005260406000206000915090505481565b6000600754905090565b600e60009054906101000a900473ffffffffffffffffffffffffffffffffffffffff1673ffffffffffffffffffffffffffffffffffffffff163373ffffffffffffffffffffffffffffffffffffffff16141515610cd157600080fd5b80600981905550505600a165627a7a7230582004c0cf2b988f36249bbfe234f450ee3e08c0ed86b92fef3a58f3eae080a65c6e0029",
  "source": "\r\npragma solidity ^0.4.23;\r\nimport './StakeToken.sol';\r\n\r\n\r\ncontract CasperDeposit {\r\n\r\nmapping(uint=>int) public intialInterest;\r\nmapping(uint256=>uint) public deposits;\r\nmapping(address=>address) withdrawalAddress;\r\nmapping(uint=>uint) validator_Index;\r\nmapping(uint=>uint) depositTime;\r\nStakeToken ST;\r\nuint totalValidators;\r\nuint totalDeposits;\r\nint totalInterestAdded;\r\nuint minDeposit;\r\nuint userRatio;\r\nuint recipientRatio;\r\nuint interval;\r\naddress recipient;\r\naddress owner;\r\n\r\n  function CasperDeposit(uint _minDeposit,uint _interval,address _recipient,uint ratio,address _Token){\r\n    minDeposit=_minDeposit;\r\n    interval=_interval;\r\n    owner=msg.sender;\r\n    recipient=_recipient;\r\n    userRatio=ratio;\r\n    recipientRatio=10000-ratio;\r\n    ST=StakeToken(_Token);\r\n  }\r\n modifier isOwner(){\r\n   require(msg.sender==owner);\r\n   _;\r\n }\r\n modifier tokenExistsandOwned(uint _token){\r\n    require(msg.sender==ST.ownerOf(_token));\r\n    _;\r\n }\r\n modifier tokenExists(uint _token){\r\n    require(ST.existStatus(_token)==true);\r\n    _;\r\n }\r\n  function newTokenDeposit( address withdrawal_addr) payable {\r\n    require(msg.value>=minDeposit);\r\n\r\n    uint coin=ST.createToken(msg.sender);\r\n    intialInterest[coin]=totalInterestAdded;\r\n    deposits[coin]=msg.value;\r\n    withdrawalAddress[msg.sender]=withdrawal_addr;\r\n    depositTime[coin]=now;\r\n    totalDeposits+=msg.value;\r\n}\r\nfunction depositToCoin( uint coinId)  tokenExistsandOwned(coinId) payable{\r\n  require(msg.value>=minDeposit);\r\n  require(deposits[coinId]==0);\r\n  intialInterest[coinId]=totalInterestAdded;\r\n  deposits[coinId]=msg.value;\r\n  //withdrawalAddress[msg.sender]=withdrawal_addr;\r\n  depositTime[coinId]=now;\r\n}\r\n  function  withdraw(uint256 coinId) tokenExistsandOwned(coinId){\r\n    //require(msg.sender==validator_Index);\r\n    //require(now-depositTime[msg.sender]>=interval);\r\n    //require(deposits[msg.sender]>minDeposit);\r\n    address to=withdrawalAddress[msg.sender];\r\n    //if(to==0) revert();\r\n    uint d=deposits[coinId];\r\n    int interest=((totalInterestAdded-int(intialInterest[coinId]))*int(d))/int(totalDeposits);\r\n    if( interest>0){\r\n\r\n    uint valInterest=uint((int(userRatio)*(interest))/10000);\r\n    uint rInterest=uint((int(recipientRatio)*(interest))/10000);\r\n    valInterest+=d;\r\n\r\n    deposits[coinId]=0;\r\n    totalDeposits-=d;\r\n    to.transfer(valInterest);\r\n    recipient.transfer(rInterest);\r\n }\r\n}\r\n\r\nfunction addInterest() payable isOwner() {\r\n  int val=int(msg.value);\r\n  totalInterestAdded+=val;\r\n}\r\nfunction transferInterest(uint coinId,uint deposit,uint ToCoinId) tokenExistsandOwned(coinId) tokenExists(ToCoinId) {\r\nuint d=deposits[coinId];\r\n\r\n}\r\n\r\nfunction setInterval(uint _newinterval) isOwner(){\r\n  interval=_newinterval;\r\n}\r\nfunction setminDeposit(uint _newminDeposit) isOwner(){\r\n  minDeposit=_newminDeposit;\r\n}\r\nfunction getDeposit(uint c) returns(uint){\r\n  return deposits[c];\r\n}\r\nfunction getInterestAdded() returns(int){\r\n  return totalInterestAdded;\r\n}\r\nfunction getTotalDeposit() returns(uint){\r\n  return totalDeposits;\r\n}\r\n//function getBalance(address user) returns(uint){\r\n  //return balances[user];\r\n//}\r\n\r\n}\r\n",
  "sourcePath": "/home/jjj/Documents/CasperERC721/contracts/CasperDeposit.sol",
  "compiler": {
    "name": "solc",
    "version": "0.4.23+commit.124ca40d.Emscripten.clang"
  },
  "schemaVersion": "2.0.0",
  "updatedAt": "2018-06-15T13:49:39.906Z"
}