{
  "contractName": "TokenTransfer",
  "abi": [
    {
      "inputs": [
        {
          "name": "_token",
          "type": "address"
        }
      ],
      "payable": false,
      "stateMutability": "nonpayable",
      "type": "constructor"
    },
    {
      "constant": false,
      "inputs": [
        {
          "name": "price",
          "type": "uint256"
        },
        {
          "name": "coinID",
          "type": "uint256"
        },
        {
          "name": "from",
          "type": "address"
        },
        {
          "name": "to",
          "type": "address"
        }
      ],
      "name": "RegisterTransfer",
      "outputs": [
        {
          "name": "",
          "type": "bytes32"
        }
      ],
      "payable": false,
      "stateMutability": "nonpayable",
      "type": "function"
    },
    {
      "constant": false,
      "inputs": [
        {
          "name": "ID",
          "type": "bytes32"
        }
      ],
      "name": "RecipientPay",
      "outputs": [],
      "payable": true,
      "stateMutability": "payable",
      "type": "function"
    },
    {
      "constant": false,
      "inputs": [
        {
          "name": "ID",
          "type": "bytes32"
        }
      ],
      "name": "SellerTransferVerify",
      "outputs": [],
      "payable": false,
      "stateMutability": "nonpayable",
      "type": "function"
    },
    {
      "constant": false,
      "inputs": [
        {
          "name": "ID",
          "type": "bytes32"
        },
        {
          "name": "price",
          "type": "uint256"
        }
      ],
      "name": "VerifyAgreement",
      "outputs": [],
      "payable": false,
      "stateMutability": "nonpayable",
      "type": "function"
    },
    {
      "constant": false,
      "inputs": [
        {
          "name": "ID",
          "type": "bytes32"
        }
      ],
      "name": "SellerWithDraw",
      "outputs": [],
      "payable": false,
      "stateMutability": "nonpayable",
      "type": "function"
    },
    {
      "constant": false,
      "inputs": [
        {
          "name": "ID",
          "type": "bytes32"
        }
      ],
      "name": "BuyerRedeem",
      "outputs": [],
      "payable": false,
      "stateMutability": "nonpayable",
      "type": "function"
    },
    {
      "constant": false,
      "inputs": [
        {
          "name": "_from",
          "type": "address"
        },
        {
          "name": "_tokenId",
          "type": "uint256"
        },
        {
          "name": "_data",
          "type": "bytes"
        }
      ],
      "name": "onERC721Received",
      "outputs": [
        {
          "name": "",
          "type": "bytes4"
        }
      ],
      "payable": false,
      "stateMutability": "nonpayable",
      "type": "function"
    },
    {
      "constant": true,
      "inputs": [
        {
          "name": "user",
          "type": "address"
        },
        {
          "name": "index",
          "type": "uint256"
        }
      ],
      "name": "GetTransactionID",
      "outputs": [
        {
          "name": "",
          "type": "bytes32"
        }
      ],
      "payable": false,
      "stateMutability": "view",
      "type": "function"
    },
    {
      "constant": true,
      "inputs": [
        {
          "name": "ID",
          "type": "bytes32"
        }
      ],
      "name": "getTokenStatus",
      "outputs": [
        {
          "name": "",
          "type": "bool"
        }
      ],
      "payable": false,
      "stateMutability": "view",
      "type": "function"
    },
    {
      "constant": false,
      "inputs": [
        {
          "name": "ID",
          "type": "uint256"
        }
      ],
      "name": "Test",
      "outputs": [
        {
          "name": "",
          "type": "bool"
        }
      ],
      "payable": false,
      "stateMutability": "nonpayable",
      "type": "function"
    }
  ],
  "bytecode": "0x608060405234801561001057600080fd5b5060405160208061149e8339810180604052810190808051906020019092919050505080600760006101000a81548173ffffffffffffffffffffffffffffffffffffffff021916908373ffffffffffffffffffffffffffffffffffffffff1602179055506000600881905550506114128061008c6000396000f3006080604052600436106100a4576000357c0100000000000000000000000000000000000000000000000000000000900463ffffffff1680631c0d51b9146100a95780633ddb4efd146100da5780634ecab08b1461016d5780635423c6921461019e5780635880ba4f146101cf57806363a242a61461020a5780636a3c84a41461024f5780638406bd81146102735780638a3896f1146102bc578063f0b9e5ba14610325575b600080fd5b3480156100b557600080fd5b506100d8600480360381019080803560001916906020019092919050505061040a565b005b3480156100e657600080fd5b5061014f6004803603810190808035906020019092919080359060200190929190803573ffffffffffffffffffffffffffffffffffffffff169060200190929190803573ffffffffffffffffffffffffffffffffffffffff16906020019092919050505061056a565b60405180826000191660001916815260200191505060405180910390f35b34801561017957600080fd5b5061019c60048036038101908080356000191690602001909291905050506108eb565b005b3480156101aa57600080fd5b506101cd6004803603810190808035600019169060200190929190505050610a2c565b005b3480156101db57600080fd5b50610208600480360381019080803560001916906020019092919080359060200190929190505050610c1a565b005b34801561021657600080fd5b5061023560048036038101908080359060200190929190505050610f4c565b604051808215151515815260200191505060405180910390f35b6102716004803603810190808035600019169060200190929190505050611021565b005b34801561027f57600080fd5b506102a26004803603810190808035600019169060200190929190505050611288565b604051808215151515815260200191505060405180910390f35b3480156102c857600080fd5b50610307600480360381019080803573ffffffffffffffffffffffffffffffffffffffff169060200190929190803590602001909291905050506112ba565b60405180826000191660001916815260200191505060405180910390f35b34801561033157600080fd5b506103b6600480360381019080803573ffffffffffffffffffffffffffffffffffffffff16906020019092919080359060200190929190803590602001908201803590602001908080601f0160208091040260200160405190810160405280939291908181526020018383808284378201915050505050509192919290505050611315565b60405180827bffffffffffffffffffffffffffffffffffffffffffffffffffffffff19167bffffffffffffffffffffffffffffffffffffffffffffffffffffffff1916815260200191505060405180910390f35b60006002600083600019166000191681526020019081526020016000206001015490503073ffffffffffffffffffffffffffffffffffffffff16600760009054906101000a900473ffffffffffffffffffffffffffffffffffffffff1673ffffffffffffffffffffffffffffffffffffffff16636352211e836040518263ffffffff167c010000000000000000000000000000000000000000000000000000000002815260040180828152602001915050602060405180830381600087803b1580156104d557600080fd5b505af11580156104e9573d6000803e3d6000fd5b505050506040513d60208110156104ff57600080fd5b810190808051906020019092919050505073ffffffffffffffffffffffffffffffffffffffff1614151561053257600080fd5b600160046000846000191660001916815260200190815260200160002060006101000a81548160ff0219169083151502179055505050565b60008060006001600860008282540192505081905550848487600854604051808573ffffffffffffffffffffffffffffffffffffffff1673ffffffffffffffffffffffffffffffffffffffff166c010000000000000000000000000281526014018473ffffffffffffffffffffffffffffffffffffffff1673ffffffffffffffffffffffffffffffffffffffff166c0100000000000000000000000002815260140183815260200182815260200194505050505060405180910390209150610120604051908101604052808881526020018781526020014281526020018673ffffffffffffffffffffffffffffffffffffffff1681526020018573ffffffffffffffffffffffffffffffffffffffff168152602001600015158152602001600015158152602001600015158152602001836000191681525060026000846000191660001916815260200190815260200160002060008201518160000155602082015181600101556040820151816002015560608201518160030160006101000a81548173ffffffffffffffffffffffffffffffffffffffff021916908373ffffffffffffffffffffffffffffffffffffffff16021790555060808201518160040160006101000a81548173ffffffffffffffffffffffffffffffffffffffff021916908373ffffffffffffffffffffffffffffffffffffffff16021790555060a08201518160040160146101000a81548160ff02191690831515021790555060c08201518160040160156101000a81548160ff02191690831515021790555060e08201518160040160166101000a81548160ff0219169083151502179055506101008201518160050190600019169055905050600560003373ffffffffffffffffffffffffffffffffffffffff1673ffffffffffffffffffffffffffffffffffffffff16815260200190815260200160002054905081600360003373ffffffffffffffffffffffffffffffffffffffff1673ffffffffffffffffffffffffffffffffffffffff168152602001908152602001600020600083815260200190815260200160002081600019169055508560066000838152602001908152602001600020819055506001600560003373ffffffffffffffffffffffffffffffffffffffff1673ffffffffffffffffffffffffffffffffffffffff168152602001908152602001600020600082825401925050819055508192505050949350505050565b60006001151560046000846000191660001916815260200190815260200160002060009054906101000a900460ff16151514151561092857600080fd5b600160003373ffffffffffffffffffffffffffffffffffffffff1673ffffffffffffffffffffffffffffffffffffffff168152602001908152602001600020600083600019166000191681526020019081526020016000205490506000600160003373ffffffffffffffffffffffffffffffffffffffff1673ffffffffffffffffffffffffffffffffffffffff16815260200190815260200160002060008460001916600019168152602001908152602001600020819055503373ffffffffffffffffffffffffffffffffffffffff166108fc829081150290604051600060405180830381858888f19350505050158015610a27573d6000803e3d6000fd5b505050565b600060026000836000191660001916815260200190815260200160002060040160009054906101000a900473ffffffffffffffffffffffffffffffffffffffff1673ffffffffffffffffffffffffffffffffffffffff163373ffffffffffffffffffffffffffffffffffffffff16141515610aa657600080fd5b6001151560026000846000191660001916815260200190815260200160002060040160149054906101000a900460ff161515141515610ae457600080fd5b600260008360001916600019168152602001908152602001600020600101549050600760009054906101000a900473ffffffffffffffffffffffffffffffffffffffff1673ffffffffffffffffffffffffffffffffffffffff166323b872dd3033846040518463ffffffff167c0100000000000000000000000000000000000000000000000000000000028152600401808473ffffffffffffffffffffffffffffffffffffffff1673ffffffffffffffffffffffffffffffffffffffff1681526020018373ffffffffffffffffffffffffffffffffffffffff1673ffffffffffffffffffffffffffffffffffffffff1681526020018281526020019350505050600060405180830381600087803b158015610bfe57600080fd5b505af1158015610c12573d6000803e3d6000fd5b505050505050565b6000600260008460001916600019168152602001908152602001600020905060026000846000191660001916815260200190815260200160002060040160009054906101000a900473ffffffffffffffffffffffffffffffffffffffff1673ffffffffffffffffffffffffffffffffffffffff163373ffffffffffffffffffffffffffffffffffffffff161480610d1a575060026000846000191660001916815260200190815260200160002060030160009054906101000a900473ffffffffffffffffffffffffffffffffffffffff1673ffffffffffffffffffffffffffffffffffffffff163373ffffffffffffffffffffffffffffffffffffffff16145b1515610d2557600080fd5b60016000803373ffffffffffffffffffffffffffffffffffffffff1673ffffffffffffffffffffffffffffffffffffffff16815260200190815260200160002060008560001916600019168152602001908152602001600020600084815260200190815260200160002060006101000a81548160ff0219169083151502179055506001151560008060026000876000191660001916815260200190815260200160002060040160009054906101000a900473ffffffffffffffffffffffffffffffffffffffff1673ffffffffffffffffffffffffffffffffffffffff1673ffffffffffffffffffffffffffffffffffffffff16815260200190815260200160002060008560001916600019168152602001908152602001600020600084815260200190815260200160002060009054906101000a900460ff161515148015610f2457506001151560008060026000876000191660001916815260200190815260200160002060030160009054906101000a900473ffffffffffffffffffffffffffffffffffffffff1673ffffffffffffffffffffffffffffffffffffffff1673ffffffffffffffffffffffffffffffffffffffff16815260200190815260200160002060008560001916600019168152602001908152602001600020600084815260200190815260200160002060009054906101000a900460ff161515145b15610f475760018160040160166101000a81548160ff0219169083151502179055505b505050565b6000600760009054906101000a900473ffffffffffffffffffffffffffffffffffffffff1673ffffffffffffffffffffffffffffffffffffffff16634f558e79836040518263ffffffff167c010000000000000000000000000000000000000000000000000000000002815260040180828152602001915050602060405180830381600087803b158015610fdf57600080fd5b505af1158015610ff3573d6000803e3d6000fd5b505050506040513d602081101561100957600080fd5b81019080805190602001909291905050509050919050565b600080600080600260008660001916600019168152602001908152602001600020935060026000866000191660001916815260200190815260200160002060000154925060026000866000191660001916815260200190815260200160002060030160009054906101000a900473ffffffffffffffffffffffffffffffffffffffff16915060026000866000191660001916815260200190815260200160002060040160009054906101000a900473ffffffffffffffffffffffffffffffffffffffff169050600115156000808473ffffffffffffffffffffffffffffffffffffffff1673ffffffffffffffffffffffffffffffffffffffff16815260200190815260200160002060008760001916600019168152602001908152602001600020600085815260200190815260200160002060009054906101000a900460ff1615151480156111e95750600115156000808373ffffffffffffffffffffffffffffffffffffffff1673ffffffffffffffffffffffffffffffffffffffff16815260200190815260200160002060008760001916600019168152602001908152602001600020600085815260200190815260200160002060009054906101000a900460ff161515145b15156111f457600080fd5b82341015156112815734600160008473ffffffffffffffffffffffffffffffffffffffff1673ffffffffffffffffffffffffffffffffffffffff168152602001908152602001600020600087600019166000191681526020019081526020016000206000828254019250508190555060018460040160146101000a81548160ff0219169083151502179055505b5050505050565b600060046000836000191660001916815260200190815260200160002060009054906101000a900460ff169050919050565b6000600360008473ffffffffffffffffffffffffffffffffffffffff1673ffffffffffffffffffffffffffffffffffffffff168152602001908152602001600020600083815260200190815260200160002054905092915050565b600080600060066000868152602001908152602001600020549150600360008773ffffffffffffffffffffffffffffffffffffffff1673ffffffffffffffffffffffffffffffffffffffff1681526020019081526020016000206000838152602001908152602001600020549050600160046000836000191660001916815260200190815260200160002060006101000a81548160ff02191690831515021790555063f0b9e5ba7c0100000000000000000000000000000000000000000000000000000000029250505093925050505600a165627a7a72305820aca95fc42db34233c665b39b068d8062f5e8234c624fa6a9ac9f804e2ec4ab410029",
  "source": "pragma solidity ^0.4.23;\nimport './StakeToken.sol';\nimport './ERC721Receiver.sol';\ncontract TokenTransfer{\n\n//mapping(address=>mapping(address=>mapping(uint=>bytes32)))CoinExchangeID;\n\nmapping(address=>mapping(bytes32=>mapping(uint=>bool)))Verify;\nmapping(address=>mapping(bytes32=>uint)) sellerBalances;\nmapping(bytes32=>Transaction) Agreements;\nmapping(address=>mapping(uint=>bytes32)) createdTransactions;\nmapping(bytes32=>bool) tokenSent;\nmapping(address=>uint) totalCreated;\nmapping(uint=>uint) CoinOrderCreated;\nStakeToken ST;\nuint counter;\n constructor(address _token){\n  ST=StakeToken(_token);\n  counter=0;\n}\nstruct Transaction{\n  uint price;\n  uint CoinID;\n  uint Time;\n  address from;\n  address to;\n  bool paid;\n  bool completed;\n  bool Verified;\n  bytes32 ID;\n}\n\n\nfunction RegisterTransfer(uint price,uint coinID,address from,address to ) returns(bytes32){\n   counter+=1;\n   bytes32 ID=sha3(from,to,coinID,counter);\n   Agreements[ID]= Transaction(price,coinID,now,from,to,false,false,false,ID);\n   uint t=totalCreated[msg.sender];\n   createdTransactions[msg.sender][t]=ID;\n   CoinOrderCreated[t]=coinID;\n   totalCreated[msg.sender]+=1;\n   return ID;\n}\n\n\nfunction RecipientPay(bytes32 ID) payable {\n Transaction storage TR=Agreements[ID];\n uint price=Agreements[ID].price;\n address seller=Agreements[ID].from;\n address buyer=Agreements[ID].to;\n require((Verify[seller][ID][price]==true)&&(Verify[buyer][ID][price]==true));\n if(msg.value>=price){\n\n    sellerBalances[seller][ID]+=msg.value;\n    TR.paid=true;\n  }\n}\n\nfunction SellerTransferVerify( bytes32 ID) {\n    uint T=Agreements[ID].CoinID;\n   require(ST.ownerOf(T) ==address(this));\n\n  tokenSent[ID]=true;\n\n\n}\nfunction VerifyAgreement(bytes32 ID,uint price) {\n  Transaction storage TR=Agreements[ID];\n  require((msg.sender==Agreements[ID].to)||(msg.sender==Agreements[ID].from));\n  Verify[msg.sender][ID][price]=true;\n  if((Verify[Agreements[ID].to][ID][price]==true)&&(Verify[Agreements[ID].from][ID][price]==true))\n     TR.Verified=true;\n}\nfunction SellerWithDraw(bytes32 ID){\n\n  require(tokenSent[ID]==true);\n  uint B=sellerBalances[msg.sender][ID];\n  sellerBalances[msg.sender][ID]=0;\n  msg.sender.transfer(B);\n}\nfunction BuyerRedeem(bytes32 ID){\n  require(msg.sender==Agreements[ID].to);\n  require(Agreements[ID].paid==true);\n  uint C = Agreements[ID].CoinID;\n  ST.transferFrom(this,msg.sender,C);\n\n}\n\nfunction onERC721Received(\n  address _from,\n  uint256 _tokenId,\n  bytes _data\n)\n  public\n  returns(bytes4){\n  uint t=CoinOrderCreated[_tokenId];\n  bytes32 ID=createdTransactions[_from][t];\n  tokenSent[ID]=true;\n  return 0xf0b9e5ba;\n  }\nfunction GetTransactionID(address user,uint index) constant returns(bytes32){\n  return createdTransactions[user][index];\n}\nfunction getTokenStatus(bytes32 ID) constant returns(bool){\n  return tokenSent[ID];\n}\nfunction Test(uint ID)returns(bool){\n   return ST.exists(ID);\n}\n\n}\n",
  "sourcePath": "/home/jjj/Documents/CasperERC721/contracts/TokenTransfer.sol",
  "compiler": {
    "name": "solc",
    "version": "0.4.23+commit.124ca40d.Emscripten.clang"
  },
  "schemaVersion": "2.0.0",
  "updatedAt": "2018-07-18T17:32:18.826Z"
}